:100000000C942A000C9452000C946F000C94340051
:100010000C9434000C9434000C9434000C94340090
:100020000C9434000C9434000C9434000C94340080
:100030000C9434000C9434000C9434000C94340070
:100040000C9434000C9434000C9434000C94340060
:100050000C94340011241FBECFE5D8E0DEBFCDBF25
:100060000E9436000C948C000C940000D09A87B348
:10007000836087BB8A9882B38C6082BB85B78160BE
:1000800085BF85B78D7F85BF85B7886085BF85B7FC
:10009000846085BF8BB780648BBF8BB780688BBF54
:1000A0007894FFCF1F920F920FB60F9211242F93C7
:1000B0008F939F9398B381E0892788BB2FE38DE0CE
:1000C00093E0215080409040E1F700C000009F91F4
:1000D0008F912F910F900FBE0F901F9018951F9228
:1000E0000F920FB60F9211242F938F939F9398B373
:1000F00082E0892788BB2FE38DE093E02150804088
:100100009040E1F700C000009F918F912F910F90D8
:0C0110000FBE0F901F901895F894FFCFC1
:00000001FF
